:020000040800F2
:1000000000500020D98F0008255500082D55000804
:10001000355500083D550008455500080000000012
:100020000000000000000000000000004D55000826
:10003000595500080000000065550008715500087A
:1000400021900008219000082190000821900008CC
:100050002190000821900008219000087D5500089B
:1000600021900008219000082190000821900008AC
:100070008D550008A1550008219000082190000826
:10008000219000082190000821900008219000088C
:10009000219000082190000821900008219000087C
:1000A00021900008B5550008219000082190000813
:1000B000219000082190000821900008219000085C
:1000C000219000082190000821900008219000084C
:1000D000219000082190000821900008C9550008CF
:1000E00021900008219000082190000800000000E5
:1000F0000000000000000000000000000000000000
:0C01000000000000000000005FF808F1A3
:1001100010B5054C237833B9044B13B10448AFF341
:1001200000800123237010BD200200200000000089
:100130006493000808B5034B1BB103490348AFF3B0
:10014000008008BD00000000240200206493000825
:10015000034613F8012B002AFBD1181A0138704707
:1001600081F0004102E000BF83F0004330B54FEA68
:1001700041044FEA430594EA050F08BF90EA020FD5
:100180001FBF54EA000C55EA020C7FEA645C7FEA68
:10019000655C00F0E2804FEA5454D4EB5555B8BF8B
:1001A0006D420CDD2C4480EA020281EA030382EAFC
:1001B000000083EA010180EA020281EA0303362D8E
:1001C00088BF30BD11F0004F4FEA01314FF4801C61
:1001D0004CEA113102D0404261EB410113F0004F73
:1001E0004FEA03334CEA133302D0524263EB43032A
:1001F00094EA050F00F0A780A4F10104D5F1200EC8
:100200000DDB02FA0EFC22FA05F2801841F1000122
:1002100003FA0EF2801843FA05F359410EE0A5F1F6
:1002200020050EF1200E012A03FA0EFC28BF4CF027
:10023000020C43FA05F3C01851EBE37101F00045DD
:1002400007D54FF0000EDCF1000C7EEB00006EEBEA
:100250000101B1F5801F1BD3B1F5001F0CD3490874
:100260005FEA30004FEA3C0C04F101044FEA4452CB
:1002700012F5800F80F09A80BCF1004F08BF5FEA52
:10028000500C50F1000041EB045141EA050130BD32
:100290005FEA4C0C404141EB0101013C28BFB1F544
:1002A000801FE9D291F0000F04BF01460020B1FA8F
:1002B00081F308BF2033A3F10B03B3F120020CDA62
:1002C0000C3208DD02F1140CC2F10C0201FA0CF040
:1002D00021FA02F10CE002F11402D8BFC2F1200CA5
:1002E00001FA02F120FA0CFCDCBF41EA0C0190405B
:1002F000E41AA2BF01EB0451294330BD6FEA0404A4
:100300001F3C1CDA0C340EDC04F11404C4F120028E
:1003100020FA04F001FA02F340EA030021FA04F3A0
:1003200045EA030130BDC4F10C04C4F1200220FAF7
:1003300002F001FA04F340EA0300294630BD21FA35
:1003400004F0294630BD94F0000F83F4801306BFFB
:1003500081F480110134013D4EE77FEA645C18BFEF
:100360007FEA655C29D094EA050F08BF90EA020F86
:1003700005D054EA000C04BF1946104630BD91EA7E
:10038000030F1EBF0021002030BD5FEA545C05D181
:100390004000494128BF41F0004130BD14F58004C0
:1003A0003CBF01F5801130BD01F0004545F0FE4134
:1003B00041F470014FF0000030BD7FEA645C1ABF69
:1003C000194610467FEA655C1CBF0B46024650EAA0
:1003D000013406BF52EA033591EA030F41F40021CC
:1003E00030BD00BF90F0000F04BF0021704730B552
:1003F0004FF4806404F132044FF000054FF0000127
:1004000050E700BF90F0000F04BF0021704730B5E7
:100410004FF4806404F1320410F0004548BF4042BC
:100420004FF000013EE700BF42004FEAE2014FEA11
:1004300031014FEA02701FBF12F07F4393F07F4FEC
:1004400081F06051704732F07F4208BF704793F0EF
:100450007F4F04BF41F40021704730B54FF4607402
:1004600001F0004521F000411CE700BF50EA010205
:1004700008BF704730B54FF000050AE050EA0102AE
:1004800008BF704730B511F0004502D5404261EB1E
:1004900041014FF4806404F132045FEA915C3FF45F
:1004A000D8AE4FF003025FEADC0C18BF03325FEAFC
:1004B000DC0C18BF033202EBDC02C2F1200300FAAD
:1004C00003FC20FA02F001FA03FE40EA0E0021FAD2
:1004D00002F11444BDE600BF70B54FF0FF0C4CF4C0
:1004E000E06C1CEA11541DBF1CEA135594EA0C0F72
:1004F00095EA0C0F00F0DEF82C4481EA030621EAAD
:100500004C5123EA4C5350EA013518BF52EA0335E7
:1005100041F4801143F4801338D0A0FB02CE4FF099
:100520000005E1FB02E506F00042E0FB03E54FF0C9
:100530000006E1FB03569CF0000F18BF4EF0010EC1
:10054000A4F1FF04B6F5007F64F5407404D25FEABD
:100550004E0E6D4146EB060642EAC62141EA555170
:100560004FEAC52040EA5E504FEACE2EB4F1FD0CB2
:1005700088BFBCF5E06F1ED8BEF1004F08BF5FEA30
:10058000500E50F1000041EB045170BD06F00046E2
:1005900046EA010140EA020081EA0301B4EB5C048F
:1005A000C2BFD4EB0C0541EA045170BD41F4801187
:1005B0004FF0000E013C00F3AB8014F1360FDEBFAC
:1005C000002001F0004170BDC4F10004203C35DA88
:1005D0000C341BDC04F11404C4F1200500FA05F30B
:1005E00020FA04F001FA05F240EA020001F00042AC
:1005F00021F0004110EBD37021FA04F642EB060122
:100600005EEA430E08BF20EAD37070BDC4F10C044B
:10061000C4F1200500FA04F320FA05F001FA04F20F
:1006200040EA020001F0004110EBD37041F10001FB
:100630005EEA430E08BF20EAD37070BDC4F1200506
:1006400000FA05F24EEA020E20FA04F301FA05F26E
:1006500043EA020321FA04F001F0004121FA04F216
:1006600020EA020000EBD3705EEA430E08BF20EAE6
:10067000D37070BD94F0000F0FD101F00046400020
:1006800041EB010111F4801F08BF013CF7D041EAA2
:10069000060195F0000F18BF704703F000465200A6
:1006A00043EB030313F4801F08BF013DF7D043EA77
:1006B0000603704794EA0C0F0CEA135518BF95EA2D
:1006C0000C0F0CD050EA410618BF52EA4306D1D1B4
:1006D00081EA030101F000414FF0000070BD50EAD3
:1006E000410606BF1046194652EA430619D094EA5D
:1006F0000C0F02D150EA013613D195EA0C0F05D147
:1007000052EA03361CBF104619460AD181EA03019A
:1007100001F0004141F0FE4141F470014FF0000052
:1007200070BD41F0FE4141F4780170BD70B54FF0ED
:10073000FF0C4CF4E06C1CEA11541DBF1CEA13556D
:1007400094EA0C0F95EA0C0F00F0A7F8A4EB05044F
:1007500081EA030E52EA03354FEA013100F0888046
:100760004FEA03334FF0805545EA131343EA12630F
:100770004FEA022245EA111545EA10654FEA0026C4
:100780000EF000419D4208BF964244F1FD0404F57D
:10079000407402D25B084FEA3202B61A65EB0305D9
:1007A0005B084FEA32024FF480104FF4002CB6EB96
:1007B000020E75EB030E22BFB61A754640EA0C0016
:1007C0005B084FEA3202B6EB020E75EB030E22BF56
:1007D000B61A754640EA5C005B084FEA3202B6EB97
:1007E000020E75EB030E22BFB61A754640EA9C0056
:1007F0005B084FEA3202B6EB020E75EB030E22BF26
:10080000B61A754640EADC0055EA060E18D04FEAE3
:10081000051545EA16754FEA06164FEAC30343EA83
:1008200052734FEAC2025FEA1C1CC0D111F4801F50
:100830000BD141EA00014FF000004FF0004CB6E749
:1008400011F4801F04BF01430020B4F1FD0C88BFE8
:10085000BCF5E06F3FF6AFAEB5EB030C04BFB6EBF3
:10086000020C5FEA500C50F1000041EB045170BDE6
:100870000EF0004E4EEA113114EB5C04C2BFD4EB13
:100880000C0541EA045170BD41F480114FF0000E97
:10089000013C90E645EA060E8DE60CEA135594EA13
:1008A0000C0F08BF95EA0C0F3FF43BAF94EA0C0F16
:1008B0000AD150EA01347FF434AF95EA0C0F7FF48B
:1008C00025AF104619462CE795EA0C0F06D152EADF
:1008D00003353FF4FDAE1046194622E750EA4106C3
:1008E00018BF52EA43067FF4C5AE50EA41047FF4D4
:1008F0000DAF52EA43057FF4EBAE12E74FF0FF3C39
:1009000006E000BF4FF0010C02E000BF4FF0010C09
:100910004DF804CD4FEA410C7FEA6C5C4FEA430C82
:1009200018BF7FEA6C5C1BD001B050EA410C0CBFD1
:1009300052EA430C91EA030F02BF90EA020F002033
:10094000704710F1000F91EA030F58BF994208BF9A
:1009500090422CBFD8176FEAE37040F00100704757
:100960004FEA410C7FEA6C5C02D150EA013C07D1AE
:100970004FEA430C7FEA6C5CD6D152EA033CD3D0F9
:100980005DF8040B704700BF8446104662468C46F3
:100990001946634600E000BF01B5FFF7B7FF002826
:1009A00048BF10F1000F01BD4DF808EDFFF7F4FF4F
:1009B0000CBF012000205DF808FB00BF4DF808EDDA
:1009C000FFF7EAFF34BF012000205DF808FB00BFFD
:1009D0004DF808EDFFF7E0FF94BF012000205DF81F
:1009E00008FB00BF4DF808EDFFF7CEFF94BF0120D4
:1009F00000205DF808FB00BF4DF808EDFFF7C4FFCD
:100A000034BF012000205DF808FB00BF4FEA410C15
:100A10007FEA6C5C02D150EA013C0AD14FEA430CF8
:100A20007FEA6C5C02D152EA033C02D14FF0000035
:100A300070474FF0010070474FEA410212F5001273
:100A400015D211D56FF47873B3EB625212D94FEA15
:100A5000C12343F0004343EA505311F0004F23FAFF
:100A600002F018BF404270474FF00000704750EA54
:100A7000013005D111F0004008BF6FF00040704711
:100A80004FF00000704700BF4FEA4102B2F1E0436F
:100A900024BFB3F5001CDCF1FE5C0DD901F0004C65
:100AA0004FEAC0024CEA5070B2F1004F40EB8300B5
:100AB00008BF20F00100704711F0804F21D113F1E1
:100AC0003872BCBF01F00040704741F480114FEA1A
:100AD0005252C2F11802C2F1200C10FA0CF320FAA3
:100AE00002F018BF40F001004FEAC1234FEAD323C0
:100AF00003FA0CFC40EA0C0023FA02F34FEA43032A
:100B0000CCE77FEA625307D150EA01331EBF4FF0B2
:100B1000FE4040F44000704701F0004040F0FE40CD
:100B200040F40000704700BF002B2DE9F0471D4640
:100B3000BBBF03F100431D4600232D2388B014469C
:100B4000B8BF1446129A109E1370149BDDF84CA087
:100B500023F02008B8F1460F05D0B8F1450F00D1B9
:100B60000136022300E0032307AA049206AACDE976
:100B700002A2CDE9003622462B4600F049FEB8F12C
:100B8000470F074619D1119BDB070ED500EB06096D
:100B90000022002320462946FFF706FF08B1CDF8C2
:100BA0001C903022079B4B451ED33846079B159A55
:100BB000DB1B136008B0BDE8F087B8F1460F00EB0F
:100BC0000609E5D10378302B0AD100220023204604
:100BD0002946FFF7E9FE18B9C6F10106CAF8006018
:100BE000DAF800309944D3E7591C07911A70D9E715
:100BF000F7B50029B6BF2D232B23494209290270DE
:100C0000437029DD0DF107031D460A27B1FBF7F6F6
:100C10001A4607FB1614303402F8014C0C46632CBC
:100C2000314603F1FF33F1DC3031941E03F8011C2F
:100C30002346411CAB420AD30DF109039B1AAC4277
:100C400088BF002302330344181A03B0F0BD13F821
:100C5000016B01F8016FEDE7302330318370C17013
:100C6000031DF1E72DE9F04F91B00C46DDF86880E7
:100C700016461F46054600F0C1FC03681846089357
:100C8000FFF766FA00230E93D8F800300990073377
:100C900023F0070303F1080294F818A0D4F800B079
:100CA000C8F80020D3E9008929F000430B93CDF860
:100CB00028804FF0FF32DDE90A01C4E912899C4B1C
:100CC000FFF7A4FE70BBDDE90A014FF0FF32984B3D
:100CD000FFF77EFE30BB0022002340464946FFF767
:100CE0006DFE10B12D2384F84330924A924BBAF135
:100CF000470F94BF9046984603234FF000092361A5
:100D00002BF00403236033462146284600970FAAA0
:100D100000F0D4F9013040F090804FF0FF3011B076
:100D2000BDE8F08F42464B4640464946FFF76EFE0F
:100D300048B14B46002BB8BF2D23804AB8BF84F87A
:100D400043307F4BD3E763680AF0DF015A1C3FD181
:100D50000623636000224BF48063236006920EAA90
:100D6000CDE904A20DAA03920DF13302CDE90132BF
:100D700063684246009328464B460A91FFF7D4FE2B
:100D80000A99804647290D9928D1C81C02DB63685F
:100D9000994240DDAAF1020A5FFA8AFA5246013905
:100DA00004F150000D91FFF723FF0E9A81461318AE
:100DB000012A236102DC2268D20701D501332361B5
:100DC0009DF83330002B9ED02D2384F843309AE7D2
:100DD0004729BFD1002BBDD10123BAE7BAF1650F76
:100DE000DCD9BAF1660F18D1002963680BDD2161E7
:100DF00013B92268D00702D501330B4423614FF0A9
:100E00000009A165DCE713B92268D20701D50233D6
:100E1000F4E70123F2E74FF0670A0E9B994205DBE6
:100E200023682161D807EAD54B1CE7E70029CCBF2E
:100E30000122C1F102021344E0E723685A0507D4F6
:100E40002369424631462846B84701302BD164E732
:100E5000BAF1650F40F2DC80D4E9120100220023D0
:100E6000FFF7A2FD002833D0012331462846354A3A
:100E7000B84701303FF451AFDDE90D38434502DB9F
:100E80002368D8070FD5DDE9082331462846B8473F
:100E900001303FF442AF4FF0000908F1FF3804F190
:100EA0001A0AC84509DC23689B0700F10281E06843
:100EB0000F9B9842B8BF184631E70123524631468E
:100EC0002846B84701303FF428AF09F10109E8E7A7
:100ED0000D9B002B38DC012331462846194AB847C0
:100EE00001303FF41AAFDDE90D3959EA030302D1AD
:100EF0002368D907D7D5DDE9082331462846B84706
:100F000001303FF40AAF4FF0000A04F11A0B0D9BB9
:100F10005B42534501DC4B4693E701235A46314679
:100F20002846B84701303FF4F8AE0AF1010AEEE76F
:100F3000FFFFEF7FC6930008CA930008CE93000816
:100F4000D2930008D6930008A36DDDF838A053456E
:100F5000A8BF5346002B994636DC4FF0000B29EA18
:100F6000E97904F11A02A36D0A93A3EB09035B4527
:100F700031DC0D9B9A453ADC2368DA0737D40D9BA8
:100F8000AAEB03090A9BAAEB03039945A8BF99465C
:100F9000B9F1000F33DC4FF0000829EAE97904F1D8
:100FA0001A0B0D9BAAEB0303A3EB090343457FF741
:100FB0007AAF01235A4631462846B84701303FF4FC
:100FC000ACAE08F10108ECE7424631462846B84786
:100FD0000130C2D1A1E60123314628460A92B84722
:100FE00001303FF49AAE0A9A0BF1010BBBE7314690
:100FF000DDE908232846B8470130C0D18DE60A9ABA
:101000004B46314628464244B8470130C3D184E6B6
:10101000DDF838A0BAF1010F01DCDB0736D501237A
:10102000424631462846B84701303FF476AEDDE906
:10103000082331462846B84701303FF46EAED4E964
:101040001201002200230AF1FF3AFFF7ADFCC0B9FC
:10105000534608F1010231462846B84701300CD109
:101060005BE601235A4631462846B84701303FF433
:1010700054AE08F10108D045F3DB4B4604F15002B1
:10108000E0E64FF0000804F11A0BF4E701234246B2
:10109000E1E701234A4631462846B84701303FF48C
:1010A0003CAE08F10108E3680F995B1A4345F0DC98
:1010B000FDE64FF0000804F11909F4E72DE9F047C7
:1010C000164698468A680B6907469342B8BF13468E
:1010D000336091F843200C46DDF820900AB10133CB
:1010E00033602368990642BF336802333360256852
:1010F00015F0060506D104F1190AE36832689B1A57
:10110000AB422BDC94F843302268003B18BF01232C
:10111000920630D44146384604F14302C8470130B4
:1011200023D02368226903F00603042B14BF002593
:1011300033684FF0000608BFE56804F11A0408BFE1
:10114000ED1A54F8123C08BF25EAE5759342C4BF76
:101150009B1AED18B5421AD1002008E0012352462F
:1011600041463846C847013003D14FF0FF30BDE853
:10117000F0870135C1E73020E11881F843005A1C9F
:1011800094F845102244023382F84310C2E7012349
:10119000224641463846C8470130E6D00136D9E7F5
:1011A0002DE9FF470F7E9146782F80460C469A46E0
:1011B0000C9E01F1430207D8622F0AD8002F00F0DD
:1011C000D380582F00F0BA8004F1420684F84270B0
:1011D0003AE0A7F16303152BF6D801A151F823F0EB
:1011E000391200084D120008C9110008C911000881
:1011F000C9110008C91100084D120008C9110008E2
:10120000C9110008C9110008C91100084F130008CE
:101210007712000809130008C9110008C911000855
:1012200071130008C911000877120008C9110008DD
:10123000C91100081113000833681A1D1B683260B9
:1012400004F1420684F8423001239EE033682068AE
:10125000191D3160060601D51D6803E04506FBD562
:10126000B3F90050002D03DA2D236D4284F843308A
:101270000A23594811E021683368080653F8045BD3
:1012800002D4490648BFADB26F2F336014BF0A23A2
:1012900008235148002184F843106668002EA8BF37
:1012A0002168A660A4BF21F0040121600DB9002EC1
:1012B0004BD01646B5FBF3F103FB1157C75D06F89B
:1012C000017D2F46BB420D46F4D9082B0BD1236874
:1012D000DF0708D5236961689942DEBF302306F82D
:1012E000013C06F1FF36921B22614B4621464046E7
:1012F000CDF800A003AAFFF7E1FE01304AD14FF07C
:10130000FF3004B0BDE8F087236843F0200323607A
:101310007827324884F84570236831681F0651F8F1
:10132000045B02D45F0648BFADB23160D90744BF49
:1013300043F0200323601DB11023ABE72648E9E703
:10134000236823F020032360F6E71646BDE73368E1
:101350002568181D616930602E061B6801D519606B
:1013600002E06806FBD51980002316462361BCE71E
:10137000336800211A1D32601E686268304600F032
:10138000AEF908B1801B606063682361002384F8B4
:101390004330AAE73246494640462369D0470130E8
:1013A000ADD023689B0713D4E068039B9842B8BF75
:1013B0001846A6E70123324649464046D047013049
:1013C0009DD00135E36803995B1AAB42F2DCEBE791
:1013D000002504F11906F5E7D8930008E993000801
:1013E000002310B50446C0E90033C0E9043383602C
:1013F00081814366C2818361194608225C3000F016
:10140000F4F80D4B246263620C4BA3620C4BE36255
:101410000C4B23630C4B9C4206D003F168029442B0
:1014200002D0D0339C4205D104F15800BDE81040F1
:1014300000F052B910BD00BF6515000887150008FF
:10144000BF150008E31500083C020020024A0349CA
:10145000034800F069B800BF00000020AD2D00086F
:101460001000002041680C4B10B59942044601D091
:1014700001F09CFCA168094B994202D0204601F082
:1014800095FCE168064B994204D02046BDE8104027
:1014900001F08CBC10BD00BF3C020020A402002063
:1014A0000C03002010B50B4B0B4C0C4A20461A6065
:1014B00004210022FFF794FF04F1680001220921B2
:1014C000FFF78EFF04F1D0000222BDE81040122188
:1014D000FFF786BF740300203C0200204D14000873
:1014E000014800F0FAB800BF7D030020014800F079
:1014F000F5B800BF7D03002010B50446FFF7F0FFEC
:10150000236A1BB1BDE81040FFF7F0BF044B236214
:10151000044B1B68002BF5D1FFF7C4FFF2E700BFB7
:1015200065140008740300202DE9F8430746884637
:1015300014460026D4E90195B9F1010905D52468BE
:10154000002CF7D13046BDE8F883AB89012B07D9D1
:10155000B5F90E30013303D029463846C04706435B
:101560006835E9E710B50C46B1F90E1000F06CF8DB
:101570000028ABBF636DA3891B1823F48053ACBF55
:101580006365A38110BD2DE9F0411F468B89054697
:10159000DB050C46164605D502230022B1F90E10D4
:1015A00000F040F8A389324623F48053A3812846F3
:1015B0003B46B4F90E10BDE8F04100F057B810B545
:1015C0000C46B1F90E1000F02DF8431CA38915BF8D
:1015D000606523F4805343F48053A38118BFA38133
:1015E00010BDB1F90E1000F00DB80346024493424D
:1015F00000D1704703F8011BF9E70000004870476D
:101600004C01002038B50023054D044608462B60E8
:1016100007F0B1FC431C02D12B6803B1236038BD35
:101620007803002038B50446084611460022054DCF
:101630002A601A4607F0C3FC431C02D12B6803B191
:10164000236038BD7803002038B5044608461146AB
:101650000022054D2A601A4607F054FC431C02D1B3
:101660002B6803B1236038BD7803002038B50446E9
:10167000084611460022054D2A601A4607F05FFC15
:10168000431C02D12B6803B1236038BD78030020CE
:1016900070B500260C4D0D4C641BA410A64209D158
:1016A00007F060FE00260A4D0A4C641BA410A642F7
:1016B00005D170BD55F8043B98470136EEE755F863
:1016C000043B98470136F2E75C9D00085C9D0008EA
:1016D0005C9D0008609D0008704770477047034696
:1016E00010B5C9B202449342184601D1002003E06C
:1016F000047801338C42F6D110BD2DE9F74F036910
:101700000C690746A3427EDB013CA30000F11405EF
:1017100001F11408009305EB8403019358F8243079
:1017200055F8242001339A42B2FBF3F608EB840902
:101730002ED34FF0000AC446AE46D3465CF8043BB5
:1017400098B206FB00A01B0C020C06FB0323DEF87C
:10175000002080B292B2121A5A44DEF800004FEA1A
:10176000134A9BB2C3EB224303EB104392B242EA0B
:101770000342E1454FEA234B4EF8042BDED2009B97
:10178000EB582BB9019B043B9D421A462FD33C6179
:10179000384601F083F9002825DB2946002058F857
:1017A000042BD1F800C01FFA82FE1FFA8CF3A3EBC2
:1017B0000E030344120CC2EB234202EB1C429BB209
:1017C00043EA0243C1454FEA224041F8043BE6D2D6
:1017D00055F8242005EB840322B9043B9D421A46A8
:1017E0000BD33C610136304603B0BDE8F08F126880
:1017F000043B002ACBD1013CC6E71268043B002A17
:10180000EFD1013CEAE70020EEE700000000000015
:101810002DE9F04F14461D46C76997B08346CDE9C0
:101820000245239E7FB9102000F002FE0246CBF84D
:101830001C0020B9EF21A84BA84801F0FDFAC0E92F
:1018400001770760C760DBF81C30196859B15A6826
:10185000012393404A608B60584600F0E7FE002267
:10186000DBF81C301A602B1EAFBF0023012223F0CF
:1018700000430393A8BF3360DDF80C80984BB8BFDA
:10188000326033EA080312D142F20F73229A1360D6
:10189000C8F31303234300F05085249BDFF844A2D0
:1018A000002B00F052850AF1030300F04CBDDDE986
:1018B0000223CDE90C23DDE90C0100220023FFF710
:1018C00073F8074658B10123229A1360249B13B181
:1018D000854B249A1360DFF814A200F036BD14ABD8
:1018E000019315AB00935846DDE90C2301F086F90E
:1018F000C8F30A568146002E77D0DDE90C010D9B16
:10190000A6F2FF36C3F3130343F07F5343F44013AF
:10191000129719460022764BFEF726FC68A3D3E9FE
:101920000023FEF7D9FD68A3D3E90023FEF71EFCD0
:10193000044630460D46FEF765FD65A3D3E9002356
:10194000FEF7CAFD02460B4620462946FEF70EFC6E
:1019500004460D46FFF770F8002207460023204694
:101960002946FFF72BF840B13846FEF74BFD2246DB
:101970002B46FFF719F800B9013F162F53D8DDE9C0
:101980000C015C4B03EBC703D3E90023FFF716F808
:1019900000284AD00023013F0F93149B9B1B5A1E23
:1019A00046BFC3F1010800234FF00008099248BF69
:1019B0000993002F3BDB099B0E973B4409930023BF
:1019C0000A93209B092B66D8052BC4BF043B2093A8
:1019D000209BC8BF0024A3F10203D8BF0124032B1E
:1019E00064D8DFE803F02B383656DDE914631E4473
:1019F00006F23243202BC1BFC3F1400308FA03F8BB
:101A000006F2124324FA03F3D6BFC3F1200348EAD7
:101A1000030004FA03F0FEF7E5FC0122A1F1F873DC
:101A2000013E129275E70123B6E70F90B5E77B42BE
:101A30000A930023A8EB07080E93C2E700230B9339
:101A4000219B002B35DC01231A46CDE90733219277
:101A50000BE00123F3E700230B93219BFB18089372
:101A60000133012B0793B8BF012300210422DBF8C7
:101A70001C0002F114059D421FD94160584600F038
:101A800095FD8246002839D1024640F2AF111A4B2B
:101A9000D2E60123E0E7012400230B9420934FF0CA
:101AA000FF330022CDE907331223D0E701230B9344
:101AB000F5E7219BCDE90733D7E701315200D8E79D
:101AC00061436F63A787D23FB3C8608B288AC63F44
:101AD000FB799F501344D33F079400081E940008DD
:101AE0000000F07F03940008D7930008D693000805
:101AF0000000F83F1895000876940008DBF81C30C9
:101B00001860079B0E2B00F2A480002C00F0A1802F
:101B1000002F33DD864B07F00F0203EBC203F805FD
:101B2000D3E90034CDE904344FEA271416D5DDE9B2
:101B30000C01804B0326D3E90823FEF7F7FDCDE91E
:101B4000020104F00F047B4D54B9DDE90423DDE903
:101B50000201FEF7EBFDCDE9020128E00226F2E7E3
:101B6000E10708D5DDE90401D5E90023FEF7B4FC5F
:101B7000CDE90401013664100835E5E700F0D280B4
:101B8000DDE90C017C426A4B04F00F0203EBC20357
:101B9000D3E90023FEF7A0FC02260023CDE90201D1
:101BA000644D2411002C40F0B280002BD3D1DDE92C
:101BB00002450F9B002B00F0B780002220462946EB
:101BC0005D4BFEF7FBFE002800F0AE80079B002B6C
:101BD00000F0AA80089B002B37DD7B1E2046049373
:101BE00000222946554BFEF777FCCDE90201089CFF
:101BF00001363046FEF706FCDDE90223FEF76CFCF9
:101C000000224F4BFEF7B2FA0546A1F15076002CA8
:101C100040F09A80DDE9020100224A4BFEF7A4FA67
:101C200002460B46CDE902232A463346FEF7E4FE80
:101C3000002840F08E82DDE902012A4606F10043C9
:101C4000FEF7BCFE002840F02781DDE90C34CDE929
:101C50000234159B002BC0F263810E2F00F36081CC
:101C6000334B03EBC703D3E90034CDE90434219BA4
:101C7000002B03DA079B002B40F30081DDE90245CE
:101C80005646DDE9042320462946FEF74FFDFEF7C0
:101C9000D3FE8046FEF7B6FBDDE90423FEF71CFC0D
:101CA00002460B4620462946FEF75EFA08F130044C
:101CB000079D06F8014BA6EB0A04A54202460B4617
:101CC00040F01681FEF752FADDE9042304460D4682
:101CD000FEF792FE002840F0F880DDE9042320465C
:101CE0002946FEF761FE18B118F0010F40F0ED80B3
:101CF0004946584600F09AFC00233370229B013776
:101D00001F60249B002B00F020831E601DE3E20770
:101D100005D5D5E90023FEF7DFFB0123013664106A
:101D200008353FE7022642E7079C049761E700BFBA
:101D300018950008F09400080000F03F00002440CF
:101D400000001C4000001440704B0B9903EBC403CF
:101D500053E902235444002945D000206C49FEF782
:101D6000E5FC33462A46FEF7FFF95646CDE9100159
:101D7000DDE90201FEF760FE0546FEF743FB024681
:101D80000B46DDE90201FEF7EFF902460B4630355E
:101D9000CDE90223DDE9102306F8015BFEF70EFE14
:101DA000002863D1DDE9022300205A49FEF7DCF95F
:101DB000DDE91023FEF702FE002840F08780A642EE
:101DC0003FF443AFDDE910010022534BFEF784FBE3
:101DD0000022CDE91001DDE902014F4BFEF77CFB4B
:101DE000CDE90201C4E731462846FEF775FB5646A9
:101DF000CDE910011394DDE90201FEF71DFE054651
:101E0000FEF700FB02460B46DDE90201FEF7ACF9E6
:101E100002460B46303506F8015BA642CDE90223A7
:101E20004FF0000224D1DDE91001394BFEF79EF995
:101E300002460B46DDE90201FEF7DEFD002845D132
:101E4000DDE9102300203249FEF78EF902460B46E9
:101E5000DDE90201FEF7B2FD00283FF4F6AE139E65
:101E6000731E139316F8013C302BF8D0049F3FE704
:101E7000294BFEF731FBCDE90201BCE70CD1DDE9CE
:101E800004010022254BFEF727FBDDE90223FEF7C4
:101E9000A9FD002800F05B8100242546219B5646C1
:101EA000DB43049300272146584600F0BFFB002D7A
:101EB000DCD02FB1AF4203D03946584600F0B6FB14
:101EC0002946584600F0B2FBD0E7049733461E4639
:101ED00013F8012D392A07D19A45F8D1049A013215
:101EE000049230228AF800201A7801321A70BDE775
:101EF0000022094BFEF7F0FA0022002304460D46AB
:101F0000FEF752FD00283FF4BCAEF1E6189500083C
:101F10000000E03F0000F03F0000244000001440BB
:101F20000B9A002A00F0DB80209A012A00F3BF8080
:101F3000129A002A00F0B78003F2334346460A9C07
:101F4000099A01211A4458469844099200F022FC4B
:101F500005465EB1099B002B08DDB342A8BF33469E
:101F6000099AA8EB0308F61AD31A09930A9BF3B14E
:101F70000B9B002B00F0B7808CB1294622465846B7
:101F800000F0C6FC4A4601460546584600F018FCDB
:101F900049460490584600F049FB049B99460A9B29
:101FA0001A1B04D04946584600F0B2FC8146012174
:101FB000584600F0EFFB0E9B0446002B00F0C98151
:101FC0001A460146584600F0A3FC209B0446012B0C
:101FD00000F38F80029B002B40F08780039BC3F3AC
:101FE0001303002B40F08380039B23F000431B0D61
:101FF0001B052BB1099B08F101080133099301234B
:102000000A930E9B002B00F0AA81236904EB830343
:10201000186900F073FBC0F12000099B184410F010
:102020001F0071D0C0F12003042B65DD099BC0F1B6
:102030001C000344804406440993B8F1000F05DDF9
:1020400049464246584600F0BDFC8146099B002B9C
:1020500005DD21461A46584600F0B4FC04460F9BA5
:10206000002B53D02146484600F018FD00284DDAD9
:102070007B1E494604930A220023584600F0F8FAD2
:102080000B9B8146002B00F06C81002329460A221D
:10209000584600F0EDFA089B0546002B61DC209BBA
:1020A000022B3BDC5DE0149BC3F1360346E7079B44
:1020B0005C1E0A9BA342BFBF0A9B0E9AE31AD2186A
:1020C000A8BF1C1B079BBEBF0A940E920024002BC6
:1020D000B5BFA8EB030646460023079B30E74646FC
:1020E0000A9C0B9D35E70A9A5CE7002388E7029B70
:1020F00086E700230A9388E79FD0099A1C331A4485
:1021000098441E44099298E70346F6E7079B049714
:10211000002B20DC0893209B022B1EDD089B002B4C
:102120007FF4BCAE21460522584600F0A1FA0146D4
:102130000446484600F0B2FC00287FF7AFAE3123DA
:10214000564606F8013B049B01330493AAE6079C1C
:1021500004972546F3E7079B08930B9B002B00F0A1
:102160000481002E05DD29463246584600F02AFC3F
:1021700005460A9B002B5AD05846696800F016FAAB
:10218000064628B9024640F2EF21834BFFF754BBC5
:102190002A6905F10C01023292000C3000F03EFE7B
:1021A00001223146584600F00DFC2F4605460AF143
:1021B00001030793089B53440B93029B03F0010315
:1021C0000A93079B2146013B48460293FFF795FA85
:1021D0003946089000F13008484600F05FFC2A4676
:1021E00009902146584600F075FCC268064602BBBD
:1021F0000146484600F052FC0246314658460C92D1
:1022000000F014FA209B0C9A079E43EA02010A9BF5
:10221000194310D1B8F1390F29D0099B002B02DDE9
:10222000089B03F13108029B83F800803BE62846B7
:10223000BBE70122E1E7099B002B04DB20990B435C
:102240000A990B4320D1002AEDDD49460122584668
:1022500000F0B8FB2146814600F020FC002803DC9A
:10226000E1D118F0010FDED0B8F1390FD8D1392300
:10227000029A137033461E4616F8012C013B392A88
:1022800052D001321A700EE6002A07DDB8F1390F7C
:10229000EDD0029A08F10103137004E6079B079A38
:1022A00003F8018C0B9B934228D0494600230A2255
:1022B000584600F0DDF9AF4281464FF000034FF081
:1022C0000A023946584607D100F0D2F907460546BA
:1022D000079B0133079374E700F0CAF929460746C4
:1022E00000230A22584600F0C3F90546F0E7089B90
:1022F0000027002BCCBF1E4601265644494601222A
:10230000584600F05FFB2146814600F0C7FB0028DD
:10231000B0DC02D118F0010FACD133461E4613F8E1
:10232000012D302AFAD0BEE59A45A4D1049B013391
:10233000049331238AF80030B5E5249BDFF85CA0D4
:102340001BB10AF10803249A1360504617B0BDE888
:10235000F08F209B012B7FF73DAE0E9B0A9301204F
:102360005BE6089B002B7FF7D6AE564621464846D3
:10237000FFF7C3F900F13008089B06F8018BA6EBC4
:102380000A029342B3DD494600230A22584600F070
:102390006FF98146EAE700BF76940008FA930008D7
:1023A00038B50546002940D051F8043C0C1F002BDD
:1023B000B8BFE41800F0EEF81C4A136833B9636044
:1023C00014602846BDE8384000F0EAB8A34208D9B6
:1023D000206821188B4201BF19685B6809182160C9
:1023E000EDE71A465B680BB1A342FAD911685018A1
:1023F000A0420BD120680144501883421160E0D103
:1024000018685B68084410605360DAE702D90C234F
:102410002B60D6E7206821188B4201BF19685B68E2
:102420000918216063605460CBE738BD8403002045
:10243000024B0146186800F02DB800BF0C000020C8
:10244000024B01461868FFF7ABBF00BF0C0000202D
:1024500070B50F4E0C463168054611B900F0CEFC40
:1024600030602146284600F0C9FC431C03D14FF0E0
:10247000FF34204670BDC41C24F00304A042F8D0F1
:10248000211A284600F0BAFC0130F2D1EFE700BF74
:10249000800300202DE9F843CD1C25F00305083505
:1024A0000C2D38BF0C25002D064601DBA94204D9AE
:1024B0000C2333600020BDE8F883DFF8D48000F0FF
:1024C00069F8D8F800301C4644BB29463046FFF76F
:1024D000BFFF431C044658D1D8F800402746002FC0
:1024E00043D1002C4BD023683946304604EB030916
:1024F00000F084FC814542D1216830466D1A29469E
:10250000FFF7A6FF01303AD023682B442360D8F8A8
:1025100000305A6862BBC8F800700FE02268521B96
:1025200020D40B2A17D96119A342256018BF59601E
:10253000636808BFC8F8001062514B60304600F075
:102540002FF804F10B00231D20F00700C21A1CBF56
:102550001B1AA350AFE76268A3420CBFC8F8002063
:102560005A60EBE723466468AEE73C467F68B6E70F
:102570001A465B68A342FBD100235360DEE70C23BD
:102580003046336000F00CF894E70560D6E700BFF2
:10259000840300200148FFF7A0B800BF7C0300209F
:1025A0000148FFF79BB800BF7C03002070B5C669E7
:1025B00004460D4676B91020FFF73AFF0246E06167
:1025C00020B96B21174B184800F036FCC0E90166B2
:1025D0000660C660E669F36883B1E369DB6853F8B7
:1025E0002500B8B9012101FA05F6721D20469200B6
:1025F00000F040FC60B1C0E901560EE02122042148
:10260000204600F037FCE369F060DB68002BE4D182
:10261000002070BD026843F825200023C0E9033381
:10262000F7E700BF079400088794000870B5C669F3
:1026300005460C4676B91020FFF7FAFE0246E8611F
:1026400020B98F21084B094800F0F6FBC0E901666C
:102650000660C6603CB1EB696268DB6853F8221023
:10266000216043F8224070BD079400088794000859
:102670002DE9F04107460C461E4600200D6901F188
:10268000140CDCF80030013099B202FB01611E0C21
:102690000B0C02FB063389B201EB034185424FEA82
:1026A00013464CF8041BECDC0EB3A368AB4219DCF8
:1026B000616838460131FFF779FF804628B9024644
:1026C000BA210C4B0C4800F0B7FB226904F10C0155
:1026D000023292000C3000F0A1FB21463846FFF791
:1026E000A5FF444604EB850301355E612561204664
:1026F000BDE8F08176940008879400080346B0F5A1
:10270000803F3ABF030410200020B3F1807F3CBF1C
:102710001B020830B3F1805F3CBF1B010430B3F1F2
:10272000804F3CBF9B000230002B05DB13F0804F35
:1027300000F1010008BF202070470368024613F033
:1027400007000BD0D90721D4980749BF5B089B0825
:10275000012013605CBF02201360704799B209B971
:1027600010201B0CD9B209B908301B0A190704BF85
:102770001B090430990704BF9B080230D90703D412
:102780005B0800F1010003D0136070470020704720
:102790002020704710B50C460121FFF707FF0246C5
:1027A00028B940F24511044B044800F045FB0123D1
:1027B0004461036110BD00BF76940008879400084F
:1027C0002DE9F04F14460A6923690F469A42A2BFC9
:1027D00023460C461F46D4F810A0D7F81090A368E3
:1027E00061680AEB0906B34285B0B8BF0131FFF753
:1027F000DDFE30B902464FF4B171434B434800F05F
:102800001BFB00F114052B46002205EB860843450F
:1028100021D307F1140104F1140202EB8A0201EB47
:1028200089030293131B153B23F00303043304F1C4
:102830001507BA4238BF04230193029B03918B42D0
:102840000CD8002E03DD58F8043D002B5AD0066149
:1028500005B0BDE8F08F43F8042BD8E7B1F800A02D
:10286000BAF1000F23D0A9464FF0000C04F1140E6A
:102870005EF8047BD9F800301FFA87FB9BB20AFB95
:102880000B336344D9F800C03F0C4FEA1C4C0AFBE1
:1028900007C707EB13479BB243EA074372454FEA6A
:1028A000174C49F8043BE3D8019B45F803C0039B50
:1028B0000431B3F80290B9F1000F21D0AE464FF0C9
:1028C000000A2B6804F1140CBCF800B0BEF80270CA
:1028D0009BB209FB0B77574443EA07434EF8043B8E
:1028E0005CF8043B4FEA134ABEF80030624509FB2E
:1028F0000A3303EB17434FEA134AE5D8019FEB5124
:1029000004359AE7013E9CE7769400088794000816
:102910002DE9F843154612F0030207460E4607D08C
:10292000254C013A002354F82220FFF7A1FE064669
:10293000AD103DD0FC697CB91020FFF779FD02464F
:10294000F86128B940F2B3111C4B1D4800F074FA2D
:10295000C0E901440460C460D7F81C80D8F808407E
:102960004CB940F271213846FFF714FF00230446AA
:10297000C8F8080003604FF00009EB070AD531469C
:1029800022463846FFF71CFF804631463846FFF79F
:102990004DFE46466D100BD0206838B922462146C0
:1029A0003846FFF70DFF2060C0F800900446E4E7CA
:1029B0003046BDE8F88300BFE094000807940008A3
:1029C000879400082DE9F0470C4607469146236995
:1029D000496803EB6218A3684FEA621A08F101061E
:1029E000B3420BDB3846FFF7E1FD054648B9024626
:1029F0004FF4EF71274B284800F01EFA01315B00BD
:102A0000EEE7002300F1140100F1100218465345CF
:102A100033DB20692AEAEA7A04F1140319F01F096A
:102A200001EB8A0103EB800C2BD08A460022C9F10E
:102A3000200E186800FA09F010434AF8040B53F806
:102A4000042B9C4522FA0EF2F3D8ACEB0403153BA1
:102A500023F00303043304F11500844538BF042335
:102A6000CA500AB108F10206013E384621462E61DD
:102A7000FFF7DCFD2846BDE8F08742F8040F01337C
:102A8000C5E7043953F8042B9C4541F8042FF9D8C5
:102A9000EAE700BF769400088794000803460A69B5
:102AA000006930B5801A0ED11433143103EB82045F
:102AB00001EB820154F8045D51F8042D954203D0D6
:102AC00005D24FF0FF3030BDA342F3D3FBE7012026
:102AD000F9E700002DE9F74F8946064611464846BA
:102AE0001446FFF7DBFF051E12D129463046FFF7DB
:102AF0005DFD024628B940F237213E4B3E4800F0CA
:102B00009BF90123C0E90435104603B0BDE8F08FFE
:102B1000BCBF4B46A1463046D9F80410BABF1C468C
:102B200001250025FFF742FD024618B940F2452174
:102B3000304BE3E700F1140BD9F8107009F11003E2
:102B4000C5604FF0000C09F11405D946266904F15F
:102B5000140E05EB87080EEB86060193019B5EF8C9
:102B6000040B53F804AF81B201931FFA8AF35B1A86
:102B7000000C6344C0EB1A4000EB23409BB243EAD5
:102B8000004376454FEA204C49F8043BE6D8331B16
:102B9000153B23F0030315340433A64238BF042346
:102BA0001D445B441E462C4644450ED308F10301E8
:102BB000491B21F00301033DA84538BF00210B4408
:102BC00053F8041D99B117619EE7E64654F8041BBB
:102BD0001FFA81FCF444080C714400EB2C4089B2CC
:102BE00041EA00414FEA204C46F8041BDCE7013F74
:102BF000E6E700BF76940008879400082DE9734348
:102C0000012190469946089EFFF7D0FC044630B952
:102C1000024640F20F31234B234800F00DF9C9F36F
:102C20000A55C9F313030DB143F480130193B8F1AE
:102C3000000324D068460093FFF77FFDDDE9001212
:102C4000D8B1C0F1200302FA03F30B43C240636121
:102C50000192019B002B0CBF01220222A361226181
:102C6000ADB1A5F2334505443560C0F13500099B8F
:102C70001860204602B0BDE870836161E9E701A8F1
:102C8000FFF75BFD019B012263612030E7E7A0F2C3
:102C9000324004EB820330601869FFF72FFDC0EB70
:102CA0004210E4E77694000887940008B1F90C20FC
:102CB000F8B5160705460C4654D44B68002B02DCC9
:102CC0000B6C002B48DDE66A002E45D0002312F481
:102CD00080522F68216A2B6030D0626DA38959071A
:102CE00005D56368D21A636B0BB1236CD21A00232B
:102CF0002846E66A216AB047431CA38906D12968A1
:102D00001D292BD8284A0A41D60727D40022626001
:102D10002269D904226004D5421C01D12B6803B971
:102D20006065616B2F60B9B104F14403994202D030
:102D30002846FFF735FB002363630DE00123284697
:102D4000B0470246501CC9D12B68002BC6D01D2BA2
:102D500001D0162B1DD12F60002021E043F040034D
:102D60001BB21AE00F69002FF6D0930718BF00239B
:102D70000E6808BF4B69F61B0F608B60002EEBDD01
:102D800033463A462846216AD4F828C0E04700284E
:102D900007DCB4F90C3043F040034FF0FF30A3815F
:102DA000F8BD0744361AE9E7FEFFBFDF38B50B6907
:102DB00005460C4613B90025284638BD18B1036AEC
:102DC0000BB9FEF799FBB4F90C30002BF3D0626E0F
:102DD000D00704D4990502D4A06DFEF77EFC2846E6
:102DE0002146FFF763FF636E0546DA07E4D4A38943
:102DF0009B05E1D4A06DFEF771FCDDE738B500233B
:102E0000054D044608462B6006F024F8431C02D109
:102E10002B6803B1236038BD780300200A44914237
:102E200000F1FF3300D1704710B511F8014B91420A
:102E300003F8014FF9D110BD1FB514461A46094BCE
:102E400005461B68D86854B9074B1C46CDE90134C8
:102E500000912B46054900F041F800F051F8044B71
:102E6000F4E700BF0C00002025960008F795000845
:102E7000EA95000870B5A1FB02543CB92946FFF75A
:102E800009FB064628B90026304670BD0C220260B8
:102E9000F9E72A462146FEF7A8FBF5E782B001B91B
:102EA00001A942B14BB113780B601278101E18BF04
:102EB000012002B070471046FBE76FF00100F8E711
:102EC0000346084641B1FF2A04D98A224FF0FF3059
:102ED0001A60704701200A70704700000EB403B5F5
:102EE000014603AB054853F8042B0068019300F03A
:102EF00035F802B05DF804EB03B070470C00002019
:102F0000062008B500F018FA012005F0F0FF9368DC
:102F100010B4013B002B936007DA9469A34201DBF4
:102F20000A2902D110BC00F031B91368581C106096
:102F30001970084610BC7047F8B506460F4614468F
:102F4000D518AC4201D1002007E03A46304614F8CB
:102F5000011BFFF7DCFF431CF3D1F8BD2DE9F04F57
:102F60000D461446984606469DB018B1036A0BB943
:102F7000FEF7C2FA6B6ED90705D4AB899A0502D465
:102F8000A86DFEF7AAFBAB891B0701D52B699BB97E
:102F90002946304600F038F970B16B6EDC0704D575
:102FA0004FF0FF301DB0BDE8F08FAB899805F7D426
:102FB000A86DFEF793FBF3E70023099320238DF818
:102FC000293030234FF00109CDF80C80DFF8A881BB
:102FD0008DF82A3023469A4613F8012B0AB1252A88
:102FE000F9D1BAEB040B0BD05B462246294630469A
:102FF000FFF7A2FF013000F0A780099A5A44099216
:103000009AF80030002B00F09F8000234FF0FF3231
:10301000CDE905230AF1010A049307938DF8533093
:103020001A935446052214F8011B5348FEF757FB28
:10303000049AD8B9D10644BF20238DF85330130722
:1030400044BF2B238DF853309AF800302A2B15D02B
:10305000544600204FF00A0C079A214611F8013B14
:10306000303B092B4BD9B0B1079214E0A0EB080319
:1030700009FA03F31343A2460493D2E7039B191DF5
:103080001B680391002BBBBF5B4242F00202079317
:103090000793B8BF049223782E2B0AD163782A2B8A
:1030A00032D1039B02341A1D1B68039243EAE37377
:1030B0000593DFF8C8A0032250462178FEF70FFBE6
:1030C00038B14022049BA0EB0A0082401343013434
:1030D000049314F8011B062229488DF82810FEF7E6
:1030E000FEFA00283FD0274B1BBB039B073323F07E
:1030F000070308330393099B3B4409936AE70C4693
:1031000001200CFB0232A8E700234FF00A0C1946FD
:1031100001340593204610F8012B303A092A03D9CF
:10312000002BC6D00591C4E7044601230CFB012106
:10313000F0E703AB00932A463046134B04A9FDF792
:1031400091FD0746781CD6D16B6ED90705D4AB89A3
:103150009A0502D4A86DFEF7C1FAAB895B063FF56C
:103160001FAF09981EE703AB00932A463046064B73
:1031700004A9FEF715F8E4E7279700082D97000843
:1031800031970008650C0008392F0008F8B50E4685
:103190001446054618B1036A0BB9FEF7ADF9A369E9
:1031A000A360A3891A0701D5236943B9214628469C
:1031B00000F02AF818B14FF0FF373846F8BD236801
:1031C0002269F6B2981A63693746834205DC2146C4
:1031D0002846FFF7EBFD0028EDD1A368013BA36073
:1031E00023685A1C22601E706269431C9A4204D0F4
:1031F000A389DB07E1D50A2EDFD121462846FFF758
:10320000D5FD0028D9D0D6E738B5294B0546186832
:103210000C4618B1036A0BB9FEF76EF9B4F90C301D
:10322000190722D4DA0607D409222A6043F04003A2
:103230004FF0FF30A38133E0580712D5616B41B1E5
:1032400004F14403994202D02846FFF7A9F800236D
:103250006363A38923F02403A381002363602369AC
:103260002360A38943F00803A38123694BB9A38991
:1032700003F42073B3F5007F03D02146284600F005
:10328000CAF8B4F90C3013F001020AD00022A2608F
:1032900062695242A261226942B913F08000C5D12D
:1032A00038BD990758BF6269A260F4E70020F7E7CC
:1032B0000C000020884210B501EB020402D98442C0
:1032C000234607D8431EA14208D011F8012B03F86A
:1032D000012FF8E7014602448A4200D110BD13F8DD
:1032E000014D02F8014DF7E71F2938B505460C4698
:1032F00004D9162303604FF0FF3038BDC26B12B102
:1033000052F821304BB9284600F030F822460146E9
:103310002846BDE8384000F017B8012B0AD0591CE8
:1033200003D1162303600120E7E70021204642F87D
:10333000241098470020E0E7024B01461868FFF789
:10334000D3BF00BF0C00002038B50023064D044653
:10335000084611462B6005F0BAFD431C02D12B68CC
:1033600003B1236038BD00BF7803002005F0A8BD7D
:103370002DE9F041804615460C4621B91146BDE8BD
:10338000F041FFF787B82AB9FFF70AF80024204672
:10339000BDE8F08100F09EF88542064602D8B5EB04
:1033A000500FF4D829464046FFF774F80746002826
:1033B000ECD0B5422A46214628BF3246FFF72EFD03
:1033C00021464046FEF7ECFF3C46E0E770B50C4670
:1033D000B1F90E10154600291E4696B00CDAA389E5
:1033E000002113F0800F14BF40234FF480630020AE
:1033F00031602B6016B070BD6A4600F049F80028B5
:10340000EDDB019901F47041A1F500535942594196
:103410004FF48063EBE78B89F7B59D0706460C46B2
:1034200007D504F14703236023610123636103B0DF
:10343000F0BD6A4601ABFFF7C9FF009F054639465C
:103440003046FFF727F848B9B4F90C309A05EED4A6
:1034500023F0030343F00203A381E2E7A389C4E955
:10346000040743F08003A381019B20605BB13046D9
:10347000B4F90E1000F01EF828B1A38923F003035D
:1034800043F00103A381A3891D43A581CFE7000079
:1034900038B50023064D0446084611462B6005F05A
:1034A00075FD431C02D12B6803B1236038BD00BFFA
:1034B0007803002038B50023054D044608462B60EC
:1034C00005F073FD431C02D12B6803B1236038BDA6
:1034D0007803002051F8043C181F002BBCBF0B5888
:1034E000C018704780B500AF3C21084803F044FE87
:1034F0003C21074803F040FE0021064803F0F8FC99
:103500000421044803F0F4FC00BF80BD90050020B6
:10351000D80500204805002080B588B000AF0346DC
:103520003960FB713B68B3F57A7F03DB40F2E73328
:103530003B6005E03B6813F57A7F01DC394B3B606B
:10354000FB79012B0CD1384BFB610423FB82364BFA
:10355000BB610823BB82354B3B610023FB600EE05F
:10356000FB79022B0BD1304BFB611023FB822E4BDE
:10357000BB612023BB822D4B3B610423FB603B6876
:10358000002B0CDBFB8A01221946F86902F0CDFF03
:10359000BB8A00221946B86902F0C7FF0EE03B68FB
:1035A000002B0BDAFB8A00221946F86902F0BDFFF6
:1035B000BB8A01221946B86902F0B7FFFB68002BED
:1035C00008D13B6883EAE372A2EBE3723B691B68B4
:1035D0005A6322E0FB68042B09D13B6883EAE3715C
:1035E000A1EBE3713B691A680B46936315E0FB6836
:1035F000082B09D13B6883EAE371A1EBE3713B69D6
:103600001A680B46D36308E03B6883EAE371A1EBD9
:10361000E3713B691A680B46136400BF2037BD464F
:1036200080BD00BF19FCFFFF0008014048050020D5
:1036300080B400AF174B1B685B6A1A46164B1A60C2
:10364000144B1B6800225A62144B1B685B6A1A46B3
:10365000134B1A60114B1B6800225A620E4B1B68F9
:10366000B3F5004F06DB0C4B1B68C3F57F43FF33FC
:10367000094A13600A4B1B68B3F5004F06DB084B81
:103680001B68C3F57F43FF33054A136000BFBD4687
:1036900080BC70479005002088030020D8050020DA
:1036A0008C03002080B582B000AF78607B68012B6E
:1036B00003D07B68022B12D023E0144B1B68184602
:1036C000FCF7A0FE4FF00002114BFDF72FF8024669
:1036D0000B4610461946FDF7D7F9034612E00D4B8D
:1036E0001B681846FCF78EFE4FF00002084BFDF7F2
:1036F0001DF802460B4610461946FDF7C5F903466C
:1037000000E0054B18460837BD4680BD8803002001
:1037100000001D408C0300200000C07F80B500AF7A
:1037200000210120FFF7F8FE00210220FFF7F4FE40
:1037300000BF80BD80B500AFC8210120FFF7ECFEBF
:10374000C8210220FFF7E8FE00BF80BD80B500AFB2
:103750006FF095010120FFF7DFFE6FF09501022069
:10376000FFF7DAFE00BF80BD80B500AF6421012005
:10377000FFF7D2FEC8210220FFF7CEFE00BF80BDBA
:1037800080B500AFC8210120FFF7C6FE64210220EA
:10379000FFF7C2FE00BF80BD80B500AF0021012051
:1037A000FFF7BAFE96210220FFF7B6FE00BF80BDEC
:1037B00080B500AF96210120FFF7AEFE0021022068
:1037C000FFF7AAFE00BF80BD80B582B000AF786071
:1037D0007B68094A93420AD1FFF72AFF00F01AF8E2
:1037E000064B1B68B3F57A7F01DB01F097F900BF48
:1037F0000837BD4680BD00BF0005002098030020AB
:1038000080B500AF024803F0C9FA00BF80BD00BF19
:103810000005002080B400AF064BD3E9002312F16D
:103820000A0043F10001034BC3E9000100BFBD469C
:1038300080BC70479003002080B400AF034BD3E9F5
:10384000002310461946BD4680BC704790030020F7
:1038500080B500AF32220749074804F099FB074BB7
:103860001B681A68054B1B6822F004021A6000BF2F
:1038700080BD00BF9C0300202006002068060020B9
:1038800080B584B000AF78600B467B804A4BFB600C
:103890007B684A4A934240F08B80FB681B78412B3F
:1038A00002D100F0C3F86CE0FB681B78432B51D1C8
:1038B00000F0D6F8FB6801331B78413B162B46D845
:1038C00001A252F823F000BF3D3900084F3900082B
:1038D0004F39000843390008373900084F390008CC
:1038E0004F3900084F3900084F3900084F39000898
:1038F0004F3900084F3900084F3900084F39000888
:103900004F39000849390008313900084F3900089B
:103910002B3900084F3900084F3900084F3900088B
:1039200025390008FFF706FF2BE0FFF70FFF28E01F
:10393000FFF71AFF25E0FFF723FF22E0FFF72CFF38
:103940001FE0FFF735FF1CE0FFF7E8FE19E0FFF787
:10395000E5FE16E0FB681B784A2B12D1FB680133A9
:103960001B78442B07D0552B0BD1154B1B681933F3
:10397000134A136005E0124B1B68193B104A136091
:1039800000BFF868FCF7E4FB03469BB21A46F968EF
:103990000A4804F08DFA32220749084804F0F8FA80
:1039A000084B1B681A68074B1B6822F004021A6058
:1039B00000BF1037BD4680BD9C03002020060020BC
:1039C000040200206806002080B500AF164B1B687B
:1039D000092B23D801A252F823F000BF053A0008B2
:1039E0000B3A0008113A00081D3A00081D3A000879
:1039F0001D3A00081D3A00081D3A00081D3A00084B
:103A0000173A000800F038F80BE000F03FF808E043
:103A100000F042F805E000F047F802E000F02CF872
:103A200000BF00BF80BD00BFD003002080B500AF45
:103A300000F05CF9084B1B6819460120FFF76CFD8C
:103A4000054B1B6819460220FFF766FD034B012258
:103A50001A6000BF80BD00BF04020020D003002018
:103A600080B400AF034B02221A6000BFBD4680BC89
:103A7000704700BFD003002080B500AFFFF74EFEB7
:103A80004FF47A7001F082FF00BF80BD80B500AFB7
:103A900000F090F900BF80BD80B500AF4FF47A70A0
:103AA00001F074FF00BF80BD80B58EB000AF0D4B3C
:103AB0001A680D4B1B68381D0C4905F0D5FA3B1DE3
:103AC0001846FCF745FB03469AB23B1D19460848C9
:103AD00004F0EEF94FF47A7001F058FF00BF383768
:103AE000BD4680BD880300208C0300208093000821
:103AF0002006002080B485B000AFF860B9607A601D
:103B0000FB68BA681A60FB687A685A60FB681846F6
:103B10001437BD4680BC704780B483B000AF786076
:103B20007B681B681A687B685B681340002B14BFB6
:103B300001230023DBB218460C37BD4680BC70471A
:103B400080B485B000AFF860B9607A60FB68BA688D
:103B50001A60FB687A685A60FB6818461437BD46DD
:103B600080BC704780B485B000AF786039607B68F6
:103B70005A683B681344FB607B681A68FB68002B3B
:103B800000DA1F335B119B001A447B681A60FB68E4
:103B90005A4203F01F0302F01F0258BF5342FB605A
:103BA000FB68002B07DAFB682033FB607B681B682F
:103BB0001A1F7B681A60FA687B685A6000BF143766
:103BC000BD4680BC704780B582B000AF78607B682E
:103BD000002200211846FFF7B3FF7B68184608371C
:103BE000BD4680BD80B584B000AFF860B9607A6032
:103BF000FB687A68B9681846FFF7A2FFFB681846A9
:103C00001037BD4680BD80B582B000AF78603960A6
:103C10003B6819683B685B68012202FA03F31A46A5
:103C20007868FFF767FF78680837BD4680BD80B5C4
:103C300082B000AF786039607B6839681846FFF75A
:103C400091FF7B6818460837BD4680BD80B586B0B9
:103C500000AFF860B9607A6007F110037A68B9685C
:103C6000184600F00BF8FB6807F1100211461846E1
:103C7000FFF7C9FFF8681837BD4680BD80B584B02E
:103C800000AFF860B9607A60FB68BA6892E8030038
:103C900083E803007968F868FFF7C9FF00BFF86898
:103CA0001037BD4680BD000080B582B002AF00F085
:103CB00013FD094B1A68094B1968094B1B680093DF
:103CC0000B460021074800F0DEFC0749054800F0DC
:103CD000F6FC00BFBD4680BD100200201C04002081
:103CE00020040020D80300200000404080B400AF32
:103CF000034B00221A6000BFBD4680BC704700BF66
:103D0000D4030020B0B58CB000AF284B1B68032B48
:103D100001DD002445E0FFF78FFDC7E90801244BD2
:103D2000D3E90023D7E90801841A61EB0305B4F550
:103D3000FA7F75F1000301D2012432E03B1D1846E1
:103D400000F0F2FA0023FB620023BB6214E0BA6ABF
:103D500007F11803391D184600F0C3F907F11803DD
:103D60001846FFF7D9FE0346002B02D0FB6A013349
:103D7000FB62BB6A0133BB62BB6A042BE7DDFB6AF3
:103D8000042B09DD094B1B680133084A13600849FD
:103D9000D7E90823C1E9002301243B1D184600F0A0
:103DA00093F9234618463037BD46B0BDD4030020F2
:103DB0001004002090B5A1B000AFFFF7A3FF0346A9
:103DC00083F00103DBB2002B0CD000210120FFF7B0
:103DD000A3FB00210220FFF79FFB4FF47A7001F054
:103DE000D5FD6AE13B1D184600F09EFA07F1180365
:103DF000391D0022184600F074F907F1180318461F
:103E0000FFF78AFE0346012B1FD107F12003391D5E
:103E10000122184600F065F907F120031846FFF764
:103E20007BFE0346012B10D107F12803391D022226
:103E3000184600F056F907F128031846FFF76CFE04
:103E40000346012B01D1012300E00023002B0FD0FA
:103E500000210120FFF760FB994B1B689B0019466E
:103E60000220FFF759FB322001F090FD00241FE1F2
:103E700007F13003391D0222184600F032F907F12C
:103E800030031846FFF748FE0346012B1FD107F108
:103E90003803391D0322184600F023F907F13803CF
:103EA0001846FFF739FE0346012B10D107F14003F6
:103EB000391D0422184600F014F907F14003184692
:103EC000FFF72AFE0346012B01D1012300E0002366
:103ED000002B0FD07A4B1B689B0019460120FFF77F
:103EE0001BFB00210220FFF717FB322001F04EFDE3
:103EF0000024DDE007F14803391D0022184600F0D8
:103F0000F0F807F148031846FFF706FE03461C4683
:103F100007F15003391D0422184600F0E2F807F1BA
:103F200050031846FFF7F8FD03469C4214BF0123D7
:103F30000023DBB2002B2ED007F15803391D0022DD
:103F4000184600F0CEF807F158031846FFF7E4FDD5
:103F50000346002B0FD05A4B1B6819460120FFF770
:103F6000DBFA574B1A6813465B00134419460220CC
:103F7000FFF7D2FA9BE0524B1A6813465B001344DA
:103F800019460120FFF7C8FA4D4B1B68194602205D
:103F9000FFF7C2FA8BE007F16003391D01221846D2
:103FA00000F09FF807F160031846FFF7B5FD0346E0
:103FB0001C4607F16803391D0322184600F091F8EA
:103FC00007F168031846FFF7A7FD03469C4214BF9C
:103FD00001230023DBB2002B30D007F17003391D21
:103FE0000122184600F07DF807F170031846FFF72C
:103FF00093FD0346002B10D0314B1B685B00194624
:104000000120FFF789FA2E4B1A6813465B00134410
:1040100019460220FFF780FA49E0294B1A68134637
:104020005B00134419460120FFF776FA244B1B6806
:104030005B0019460220FFF76FFA38E007F17803BA
:10404000391D0222184600F04CF807F17803184693
:10405000FFF762FD0346002B29D0194B1B68184659
:10406000FCF7D0F94FF00002164BFCF735FA024688
:104070000B4610461946FCF7DFFC034619460120A3
:10408000FFF74AFA0E4B1B681846FCF7BBF94FF0D6
:1040900000020C4BFCF720FA02460B46104619466C
:1040A000FCF7CAFC034619460220FFF735FA012443
:1040B0003B1D184600F008F8012C8437BD4690BD22
:1040C000040200200000124080B582B000AF78608A
:1040D0007B68184600F029F87B6818460837BD460B
:1040E00080BD80B586B000AFF860B9607A6007F136
:1040F0001003B968184600F028F87A68FB6807F1E1
:1041000010011846FFF7A2FD00BFF8681837BD463A
:1041100080BD80B582B000AF7860786800F025F887
:104120007B6818460837BD4680BD80B582B000AFB9
:104130007860786800F025F87B681846FFF7E9FF9B
:104140007B6818460837BD4680BD80B582B000AF99
:10415000786039603B681B68002219467868FFF771
:1041600041FD78680837BD4680BD80B582B000AF9C
:104170007860786800F02AF87B6818460837BD46F2
:1041800080BD80B584B000AF78607B681B68002B71
:1041900018D07B68184600F023F802467B681B683D
:1041A000D31A9B10FB6078687B681A69FB689B00D8
:1041B0005B421344FA68194600F028F87B681846F9
:1041C00000F033F800BF1037BD4680BD80B483B027
:1041D00000AF78607B6818460C37BD4680BC7047DE
:1041E00080B582B000AF78607B681B69002B08D077
:1041F0007B681B69043B184600F02CF80346043327
:1042000000E0002318460837BD4680BD80B584B065
:1042100000AFF860B9607A607A68B968F86800F051
:1042200023F800BF1037BD4680BDB0B588B000AFE1
:10423000786007F10C03184600F025F87B681D46EE
:1042400007F10C040FCC0FC523682B6000BF20378B
:10425000BD46B0BD80B483B000AF78607B681846BF
:104260000C37BD4680BC704780B584B000AFF860A5
:10427000B9607A607B689B001946B86804F0D1FE8B
:104280001037BD4680BD80B582B000AF78607B68D6
:104290001846FFF798FC7B6808331846FFF793FC35
:1042A0007B6800221A617B6818460837BD4680BDCE
:1042B00080B483B000AF78600B46FB70FB78002BB6
:1042C00009D07B681B6819687B685A687B681B6823
:1042D0000A431A6009E07B681B6819687B685B68A1
:1042E000DA437B681B680A401A607B6818460C3703
:1042F000BD4680BC704780B584B000AFF860B9603F
:104300001346FB71FB79002B02D04FF0FF3100E028
:104310000021BB689B001A46F868FDF766F900BFEC
:104320001037BD4680BD000090B589B000AF786001
:104330000023FB7207F10C03184600F041F807F167
:104340000C0307F10B020521786800F051F807F122
:104350000C03184600F040F80A23BB610023FB6100
:1043600021E0154AFB6952F823201449FB6931F812
:1043700013301946104602F0C1F80346002B0CBF5B
:1043800001230023DCB2FA6907F1100379681846AB
:10439000FFF7A7FE07F1100321461846FFF788FF35
:1043A000FB690133FB61FA69BB699A42D9DB00BF43
:1043B00078682437BD4690BDC8010020F001002078
:1043C00080B582B000AF7860786800F02CF87B6828
:1043D00018460837BD4680BD80B582B000AF786012
:1043E000786800F02AF87B6818460837BD4680BD1B
:1043F00080B584B000AFF860B9607A603B60FB685C
:104400003968184600F023F8B968F86800F03BF8FE
:104410007B681B781946F86800F071F8FB6818464D
:104420001037BD4680BD80B483B000AF78607B6834
:1044300018460C37BD4680BC704780B483B000AFCF
:1044400078607B6818460C37BD4680BC704790B5D5
:1044500085B000AF786039607C6807F10C0339687B
:10446000184600F078F807F10C031946204600F0D2
:104470007FF807F10C031846FFF777FE7B681846B4
:104480001437BD4690BD90B589B000AFF860B960F3
:10449000BB68002B2FD0FB68B968184600F07AF88B
:1044A000F861B86800F08AF803469B00FA691A447C
:1044B000FB681A61F869FFF7CDFE014607F11403A6
:1044C00000221846FFF78EFBFB681A4607F114031B
:1044D00093E8030082E80300BA68FC683B4607F1F2
:1044E00014011846FFF7CAFB04F108033A4692E8A4
:1044F000030083E8030000BF2437BD4690BD80B5AC
:1045000084B000AF78600B46FB707B681B68FB6073
:10451000FB68002B0DD07B681846FFF761FE024652
:10452000FB68D31A9B101946FB781A46F868FFF708
:10453000E2FE00BF1037BD4680BD80B582B000AF3F
:10454000786039603968786800F044F87B6818460C
:104550000837BD4680BD80B582B000AF7860396055
:10456000786800F042F87B6818460837BD4680BD81
:1045700080B582B000AF7860396039687868FFF73D
:10458000DCFF7B681846FFF77EFE7B68184608371D
:10459000BD4680BD90B585B000AF786039607C685D
:1045A000386800F00BF803461946204600F027F85B
:1045B000F860FB6818461437BD4690BD80B483B0E0
:1045C00000AF78607B681F335B0918460C37BD4627
:1045D00080BC704780B483B000AF786039607B687E
:1045E00018460C37BD4680BC704780B483B000AF1E
:1045F00078607B6818460C37BD4680BC704780B534
:1046000082B000AF7860396000223968786800F0C5
:1046100005F8034618460837BD4680BD80B584B00E
:1046200000AFF860B9607A60F86800F021F80246DF
:10463000BB6893428CBF01230023DBB2002B14BF65
:1046400001230023DBB2002B07D0BB68B3F1804FFE
:1046500001D304F0FCFC04F0F7FCBB689B00184697
:1046600004F0E1FC034600BF18461037BD4680BD8C
:1046700080B483B000AF78606FF0604318460C37A9
:10468000BD4680BC704780B485B000AFF860B960AB
:104690007A603B60FB68BA681A63FB687A685A61A3
:1046A000FB683A689A61FB68BA69DA61FB684FF0A7
:1046B00000021A6000BF1437BD4680BC704780B44A
:1046C00083B000AF786039607B683A681A6000BFD9
:1046D0000C37BD4680BC704780B582B002AF0D4B31
:1046E0001A680D4B19680D4B1B6800930B4601218E
:1046F0000B48FFF7C8FF074B1A68074B1968074BB1
:104700001B6800930B4601210648FFF7BCFF00BF62
:10471000BD4680BD080200200C02002018040020C5
:10472000240400205804002080B586B000AF144B4C
:104730009B69134A43F008039361114B9B6903F093
:1047400008037B607B681123FB604FF44073BB6000
:1047500003237B6107F1080319460A4801F04AFD6B
:1047600001224FF48071074801F0DFFE01224FF46F
:104770000071044801F0D9FE00BF1837BD4680BD66
:1047800000100240000C014080B500AF01224FF440
:1047900000710B4801F0C9FE01224FF480710848F6
:1047A00001F0C3FE00224FF40071054801F0BDFE88
:1047B00000224FF48071024801F0B7FE00BF80BDB7
:1047C000000C014080B500AF00224FF40071084892
:1047D00001F0ABFE01224FF48071054801F0A5FE07
:1047E00001224FF40071024801F09FFE00BF80BD1E
:1047F000000C014080B584B000AF0346FB7100237C
:10480000FB731EE0FB7B802242FA03F35AB297F956
:10481000073013405BB2DBB21A464FF40071124806
:1048200001F083FE01224FF480710F4801F07DFEFC
:1048300000224FF480710C4801F077FEFB7B0133BE
:10484000FB73FB7B072BDDD901224FF480710648F7
:1048500001F06BFE00224FF48071034801F065FE09
:1048600000BF1037BD4680BD000C014080B582B04E
:1048700000AF0346FB71FFF787FF7820FFF7BAFF11
:104880000020FFF7B7FFFB791846FFF7B3FFFFF7EC
:1048900099FF00BF0837BD4680BD80B582B000AF2C
:1048A0000346FB71FFF770FF7820FFF7A3FF40205E
:1048B000FFF7A0FFFB791846FFF79CFFFFF782FF89
:1048C00000BF0837BD4680BD80B582B000AF03464B
:1048D0000A46FB711346BB71FB7963F04F03DBB2F1
:1048E0001846FFF7C3FFBB791B09DBB243F0100387
:1048F000DBB21846FFF7BAFFBB7903F00F03DBB258
:104900001846FFF7B3FF00BF0837BD4680BD80B52E
:1049100082B000AF0023BB7114E0BB7900211846C0
:10492000FFF7D2FF0023FB7105E00020FFF7B5FF82
:10493000FB790133FB7197F90730002BF5DABB796E
:104940000133BB71BB79072BE7D900BF00BF083724
:10495000BD4680BD80B584B000AF0346FB710B46F9
:10496000BB7113467B71FB79013BDBB25B00DAB2B2
:10497000BB79013BDBB2DB00DBB219461046FFF727
:10498000A3FF0023FB730EE07B79A3F12002FB7BE6
:104990001C4912010A4413441B781846FFF77DFF97
:1049A000FB7B0133FB73FB7B072BEDD9FB79013BD1
:1049B000DBB25B00DBB20133DAB2BB79013BDBB2C5
:1049C000DB00DBB219461046FFF77EFF0023FB73C6
:1049D0000FE07B79A3F12002FB7B08330949120128
:1049E0000A4413441B781846FFF757FFFB7B01333B
:1049F000FB73FB7B072BECD900BF00BF1037BD4614
:104A000080BD00BF3897000880B584B000AF034672
:104A10003A60FB710B46BB710023FB730EE0BA7961
:104A2000FB7B1344D9B2FB7B3A6813441A78FB79B9
:104A30001846FFF78FFFFB7B0133FB73FB7B3A6864
:104A400013441B78002BEAD100BF00BF1037BD46CE
:104A500080BD80B582B000AF00237B600CE00023F6
:104A60003B6002E03B6801333B603B68B3F57A7F13
:104A7000F8D37B6801337B607B68B3F57A7FEED334
:104A8000FFF752FEAE20FFF7F1FED520FFF7EEFE56
:104A90008020FFF7EBFEA820FFF7E8FE3F20FFF79E
:104AA000E5FED320FFF7E2FE0020FFF7DFFE402007
:104AB000FFF7DCFEA120FFF7D9FEC820FFF7D6FEE6
:104AC000DA20FFF7D3FE1220FFF7D0FE8120FFF798
:104AD000CDFECF20FFF7CAFED920FFF7C7FEF12099
:104AE000FFF7C4FEDB20FFF7C1FE3020FFF7BEFE5C
:104AF000A420FFF7BBFEA620FFF7B8FE8D20FFF72E
:104B0000B5FE1420FFF7B2FEAF20FFF7AFFEFFF7B0
:104B1000FEFE00BF0837BD4680BD000080B500AF77
:104B20000120FEF7BFFD03461846FBF77DFC024659
:104B30000B461249124804F097FA0220FEF7B2FD24
:104B400003461846FBF770FC02460B460D490E481B
:104B500004F08AFAFFF7DBFE0C4A01210120FFF77F
:104B600053FF074A01210220FFF74EFF064A0121A9
:104B70000320FFF749FF00BF80BD00BF98930008E6
:104B80008C040020A89300089C040020B89300081F
:104B900080B500AF00F098FE00F01DF800F070F84E
:104BA00000F0FCF800F0EAFB00F0ECF900F09AF9F4
:104BB00000F068FA00F0BAFA00F016F9FEF720FEED
:104BC000FEF790FCFEF744FEFFF76EF8FFF741FF9B
:104BD000FEF7FAFEFCE780B590B000AF07F11803CE
:104BE000282200211846FCF700FD3B1D00221A6018
:104BF0005A609A60DA601A610123BB614FF4803316
:104C0000FB6100233B620123BB6202237B634FF401
:104C10008033BB634FF4E013FB6307F118031846BE
:104C200000F0D8FE0346002B14BF01230023DBB2A3
:104C3000002B01D000F01EF80F237B600223BB6025
:104C40000023FB604FF480633B6100237B613B1DCD
:104C50000221184601F040F90346002B14BF01233E
:104C60000023DBB2002B01D000F004F800BF403776
:104C7000BD4680BD80B400AF72B600BF00BFFDE787
:104C800080B588B000AF07F1100300221A605A60A7
:104C90009A60DA603D4B9B693C4A43F02003936184
:104CA0003A4B9B6903F02003FB60FB68374B9B6921
:104CB000364A43F004039361344B9B6903F00403C9
:104CC000BB60BB68314B9B69304A43F0080393617A
:104CD0002E4B9B6903F008037B607B6800223C211C
:104CE0002B4801F022FC002201212A4801F01DFC82
:104CF0003C233B6101237B610023BB610223FB61F9
:104D000007F110031946224801F074FA01233B61B0
:104D100001237B610023BB610223FB6107F11003C8
:104D200019461C4801F066FA02233B611A4B7B616D
:104D30000223BB6107F110031946164801F05AFA25
:104D40004FF470433B6100237B610123BB6107F19A
:104D5000100319460F4801F04DFA4FF41F433B6111
:104D600000237B610123BB6107F11003194608484A
:104D700001F040FA00220021072001F08AFF0720FD
:104D800001F0A3FF00BF2037BD4680BD00100240E8
:104D900000080140000C01400000311080B582B0D5
:104DA00000AF104B5B690F4A43F0010353610D4B99
:104DB0005B6903F001037B607B68002200210C200B
:104DC00001F067FF0C2001F080FF002200210D2080
:104DD00001F05FFF0D2001F078FF00BF0837BD46EE
:104DE00080BD00BF0010024080B500AF124B134AD7
:104DF0001A60114B124A5A600F4B00229A600E4BF8
:104E00000022DA600C4B4FF480421A610A4B0022F8
:104E10005A61094B00229A61074B0022DA61064B66
:104E200000221A62044800F00BFC0346002B01D05C
:104E3000FFF720FF00BF80BDAC04002000540040FD
:104E4000A086010080B58AB000AF786007F1140336
:104E500000221A605A609A60DA607B681B681D4AFB
:104E6000934232D11C4B9B691B4A43F00803936168
:104E7000194B9B6903F008033B613B694FF4407396
:104E80007B611223BB6103233B6207F114031946C4
:104E9000124801F0AFF9124B5B687B627B6A43F00A
:104EA000E0637B627B6A43F002037B620C4A7B6AAD
:104EB0005360094BDB69084A43F40013D361064B86
:104EC000DB6903F40013FB60FB6800BF2837BD46B5
:104ED00080BD00BF0054004000100240000C0140A3
:104EE0000000014080B586B000AF07F10803002242
:104EF0001A605A609A60DA603B4600221A605A6073
:104F00001E4B1F4A1A601D4B47225A601B4B002242
:104F10009A601A4B42F20F72DA60184B00221A6143
:104F2000164B00225A61154B00229A61134801F07A
:104F3000E6FE0346002B01D0FFF79CFE4FF48053A2
:104F4000BB6007F1080319460C4802F055FB034605
:104F5000002B01D0FFF78EFE00233B6000237B6017
:104F60003B461946054802F0E3FE0346002B01D0FC
:104F7000FFF780FE00BF1837BD4680BD000500204A
:104F8000002C014080B58EB000AF07F1280300224D
:104F90001A605A609A60DA6007F1200300221A60F2
:104FA0005A603B1D00221A605A609A60DA601A61EA
:104FB0005A619A61324B4FF080421A60304B47225F
:104FC0005A602F4B00229A602D4B40F2E732DA6094
:104FD0002B4B00221A612A4B80229A61284801F04B
:104FE0008EFE0346002B01D0FFF744FE4FF48053A2
:104FF000BB6207F128031946214802F0FDFA034677
:10500000002B01D0FFF736FE1D4801F019FF0346C3
:10501000002B01D0FFF72EFE00233B6200237B62B2
:1050200007F120031946164802F082FE0346002BC2
:1050300001D0FFF71FFE60237B600023BB600023CD
:10504000FB6000237B613B1D002219460C4802F0E7
:1050500011FA0346002B01D0FFF70CFE3B1D042282
:105060001946074802F006FA0346002B01D0FFF765
:1050700001FE034800F052F900BF3837BD4680BD3D
:105080004805002080B58CB000AF07F10C03242246
:1050900000211846FCF7A9FA3B1D00221A605A604D
:1050A000204B214A1A601F4B01225A601D4B0022DF
:1050B0009A601C4B4FF6FF72DA601A4B00221A619D
:1050C000184B00229A610123FB6000233B610123FE
:1050D0007B610023BB610823FB6100233B6201234A
:1050E0007B620023BB620823FB6207F10C031946B5
:1050F0000C4801F09FFF0346002B01D0FFF7BAFDDB
:1051000000237B600023BB603B1D1946054802F06D
:105110000FFE0346002B01D0FFF7ACFD00BF303778
:10512000BD4680BD900500200004004080B58CB0D5
:1051300000AF07F10C03242200211846FCF755FAB2
:105140003B1D00221A605A60204B214A1A601F4BF7
:1051500001225A601D4B00229A601C4B4FF6FF72D1
:10516000DA601A4B00221A61184B00229A6101235F
:10517000FB6000233B6101237B610023BB610823AB
:10518000FB6100233B6201237B620023BB62082397
:10519000FB6207F10C0319460C4801F04BFF034674
:1051A000002B01D0FFF766FD00237B600023BB606E
:1051B0003B1D1946054802F0BBFD0346002B01D0FC
:1051C000FFF758FD00BF3037BD4680BDD805002031
:1051D0000008004080B584B000AF78607B681B6831
:1051E000164A934214D1164B9B69154A43F4006347
:1051F0009361134B9B6903F40063FB60FB6800221F
:105200000021192001F045FD192001F05EFD10E09C
:105210007B681B68B3F1804F0BD1094BDB69084AEF
:1052200043F00103D361064BDB6903F00103BB606C
:10523000BB6800BF1037BD4680BD00BF002C0140D9
:105240000010024080B58AB000AF786007F1180303
:1052500000221A605A609A60DA607B681B682A4AEA
:10526000934224D1294BDB69284A43F00203D361DE
:10527000264BDB6903F002037B617B69234B9B694F
:10528000224A43F004039361204B9B6903F004031B
:105290003B613B69C023BB610023FB6100233B6290
:1052A00007F1180319461A4800F0A4FF28E07B68AC
:1052B0001B68184A934223D1144BDB69134A43F00D
:1052C0000403D361114BDB6903F00403FB60FB684B
:1052D0000E4B9B690D4A43F0080393610B4B9B698E
:1052E00003F00803BB60BB68C023BB610023FB6104
:1052F00000233B6207F118031946074800F07AFFC4
:1053000000BF2837BD4680BD0004004000100240A9
:105310000008014000080040000C014080B588B042
:1053200000AF786007F1100300221A605A609A609B
:10533000DA607B681B68B3F1804F17D10D4B9B6916
:105340000C4A43F0040393610A4B9B6903F0040386
:10535000FB60FB6803233B6102237B610223FB614B
:1053600007F110031946044800F044FF00BF20373E
:10537000BD4680BD001002400008014080B500AF6E
:10538000114B124A1A60104B4FF416525A600E4BD2
:1053900000229A600C4B0022DA600B4B00221A614B
:1053A000094B0C225A61084B00229A61064B0022DD
:1053B000DA61054802F02CFD0346002B01D0FFF70F
:1053C00059FC00BF80BD00BF2006002000480040FF
:1053D00080B588B000AF786007F1100300221A6032
:1053E0005A609A60DA607B681B68474A934240F0D3
:1053F0008680464BDB69454A43F48023D361434BA7
:10540000DB6903F48023FB60FB68404B9B693F4AE8
:1054100043F0080393613D4B9B6903F00803BB60B5
:10542000BB684FF480633B6102237B610323FB6114
:1054300007F110031946364800F0DCFE4FF4006314
:105440003B6100237B610023BB6107F11003194618
:105450002F4800F0CFFE2F4B2F4A1A602D4B002211
:105460005A602C4B00229A602A4B8022DA60294B2A
:1054700000221A61274B00225A61264B00229A61B2
:10548000244B0022DA61234801F08AF80346002BFE
:1054900001D0FFF7EFFB7B681E4ADA631D4A7B6889
:1054A00053621E4B1E4A1A601C4B10225A601B4B43
:1054B00000229A60194B8022DA60184B00221A6190
:1054C000164B00225A61154B00229A61134B0022A1
:1054D000DA61124801F064F80346002B01D0FFF7AF
:1054E000C9FB7B680D4A9A630C4A7B6853620022B1
:1054F0000021272001F0CDFB272001F0E6FB00BFB3
:105500002037BD4680BD00BF00480040001002406B
:10551000000C01406806002030000240AC0600206C
:105520001C00024080B400AF00BFFDE780B400AFB4
:1055300000BFFDE780B400AF00BFFDE780B400AF5F
:1055400000BFFDE780B400AF00BFFDE780B400AF4F
:1055500000BFBD4680BC704780B400AF00BFBD46F1
:1055600080BC704780B400AF00BFBD4680BC7047B0
:1055700080B500AF00F0EEF900BF80BD80B500AF90
:10558000022000F0EBFF00BF80BD000080B500AF3F
:10559000024801F073F900BF80BD00BFAC060020D7
:1055A00080B500AF024801F069F900BF80BD00BFBF
:1055B0006806002080B500AF024801F06BFE00BF16
:1055C00080BD00BF0005002080B500AF024802F09A
:1055D00039FD00BF80BD00BF2006002080B485B02B
:1055E00000AF154B9B69144A43F001039361124BC2
:1055F0009B6903F00103BB60BB680F4BDB690E4A7C
:1056000043F08053D3610C4BDB6903F080537B6024
:105610007B680A4B5B68FB60FB6823F0E063FB6020
:10562000FB6843F00073FB60044AFB68536000BFF3
:105630001437BD4680BC7047001002400000014096
:1056400080B584B000AF78607B68002B01D1012366
:105650002BE17B6893F83D30DBB2002B06D17B68F1
:10566000002283F83C207868FFF7ECFB7B6824225B
:1056700083F83D207B681B681A687B681B6822F0F2
:1056800001021A607B681B681A687B681B6842F419
:1056900000421A607B681B681A687B681B6822F4EA
:1056A00000421A6000F060FDF8607B685B68814A28
:1056B000934207D8FB68804A934294BF012300239A
:1056C000DBB206E0FB687D4A934294BF01230023CE
:1056D000DBB2002B01D00123E7E0FB68784AA2FB94
:1056E00003239B0CBB607B681B685B6823F03F0156
:1056F0007B681B68BA680A435A607B681B681B6A30
:1057000023F03F017B685B686A4A934202D8BB681A
:10571000013309E0BB684FF4967202FB03F3694A58
:10572000A2FB03239B0901337A6812680B431362BF
:105730007B681B68DB6923F44F4222F0FF027B6821
:105740005B685C498B4219D8FB68591E7B685B68B3
:105750005B00B1FBF3F3591C40F6FC730B40002BCC
:105760000AD0FB68591E7B685B685B00B1FBF3F3F2
:105770000133C3F30B0351E004234FE07B689B68C4
:10578000002B11D1FB68581E7B6859680B465B00E3
:105790000B44B0FBF3F30133C3F30B03002B0CBF3B
:1057A00001230023DBB212E0FB68581E7B685968B6
:1057B0000B469B000B4499000B44B0FBF3F3013301
:1057C000C3F30B03002B0CBF01230023DBB2002B20
:1057D00001D0012322E07B689B68002B0ED1FB687F
:1057E000581E7B6859680B465B000B44B0FBF3F313
:1057F0000133C3F30B0343F400430FE0FB68581E6F
:105800007B6859680B469B000B4499000B44B0FB26
:10581000F3F30133C3F30B0343F44043796809689E
:105820001343CB617B681B681B6823F0C0017B6856
:10583000DA697B681B6A1A437B681B680A431A6033
:105840007B681B689B6823F4034323F0FF037A689B
:1058500011697A68D26811437A6812680B439360C1
:105860007B681B68DB6823F0FF017B685A697B68F3
:105870009B691A437B681B680A43DA607B681B6874
:105880001A687B681B6842F001021A607B6800227C
:105890001A647B68202283F83D207B6800221A630B
:1058A0007B68002283F83E20002318461037BD464F
:1058B00080BD00BFA08601007F841E00FF083D0060
:1058C00083DE1B43D34D621080B500AF084B1B68CD
:1058D000074A43F010031360032001F0CFF90020C2
:1058E00000F008F8FFF77AFE0023184680BD00BFDD
:1058F0000020024080B582B000AF7860124B1A6879
:10590000124B1B7819464FF47A73B3FBF1F3B2FBD9
:10591000F3F3184601F0E7F90346002B01D0012309
:105920000EE07B680F2B0AD8002279684FF0FF3019
:1059300001F0AFF9064A7B681360002300E0012301
:1059400018460837BD4680BD1C0200201802002002
:105950001402002080B400AF054B1B781A46054B9B
:105960001B681344034A136000BFBD4680BC7047E8
:1059700018020020F006002080B400AF024B1B6824
:105980001846BD4680BC7047F006002080B584B044
:1059900000AF7860FFF7F0FFB8607B68FB60FB68E2
:1059A000B3F1FF3F05D00A4B1B781A46FB6813443E
:1059B000FB6000BFFFF7E0FF0246BB68D31AFA683E
:1059C0009A42F7D800BF00BF1037BD4680BD00BF68
:1059D0001802002080B586B000AF78607B68002B8D
:1059E00001D1012372E27B681B6803F00103002BE5
:1059F00000F08780924B5B6803F00C03042B0CD003
:105A00008F4B5B6803F00C03082B12D18C4B5B6847
:105A100003F48033B3F5803F0BD1894B1B6803F44B
:105A20000033002B6CD07B685B68002B68D10123AE
:105A30004CE27B685B68B3F5803F06D1804B1B6806
:105A40007F4A43F4803313602EE07B685B68002B51
:105A50000CD17B4B1B687A4A23F480331360784B5C
:105A60001B68774A23F4802313601DE07B685B6822
:105A7000B3F5A02F0CD1724B1B68714A43F48023FD
:105A800013606F4B1B686E4A43F4803313600BE066
:105A90006B4B1B686A4A23F480331360684B1B68A6
:105AA000674A23F4802313607B685B68002B13D064
:105AB000FFF762FF386108E0FFF75EFF02463B69CF
:105AC000D31A642B01D9032300E25D4B1B6803F456
:105AD0000033002BF0D014E0FFF74EFF386108E0F0
